:100000000C94DA000C9402010C9402010C9402018D
:100010000C9402010C9402010C9402010C94020154
:100020000C9402010C9402010C9402010C94020144
:100030000C9402010C9402010C9402010C94020134
:100040000C9467030C9402010C94D7030C94B10335
:100050000C9402010C9402010C9402010C94020114
:100060000C9402010C94020100407A10F35A00A093
:10007000724E18090010A5D4E80000E87648170071
:1000800000E40B54020000CA9A3B000000E1F505B1
:10009000000080969800000040420F000000A086FB
:1000A00001000000102700000000E803000000002D
:1000B0006400000000000A000000000001000000D1
:1000C00000002C76D888DC674F0823DFC1DFAE59EB
:1000D000E1B1B796E5E3E453C63AE651997696E87E
:1000E000E6C28426EB898C9B62ED407C6FFCEFBC02
:1000F0009C9F40F2BAA56FA5F490055A2AF75C932D
:100100006B6CF9676DC11BFCE0E40D47FEF520E662
:10011000B500D0ED902E0300943577050080841E45
:10012000080000204E0A000000C80C333333330FA0
:10013000986E12831141EF8D2114893BE65516CF3D
:10014000FEE6DB18D1844B381BF77C1D901DA4BB49
:10015000E424203284725E228100C9F124ECA1E5FE
:100160003D2700000000240027002A0000000000B6
:10017000250028002B0004040404040404040202E3
:100180000202020203030303030301020408102016
:100190004080010204081020010204081020000021
:1001A0000008000201000003040700000000000036
:1001B0000000B00611241FBECFEFD8E0DEBFCDBFD8
:1001C00021E0A6E2B1E001C01D92A53DB207E1F732
:1001D00011E0A0E0B1E0E8E0FBE102C005900D9283
:1001E000A632B107D9F710E0CAEDD0E004C02197DC
:1001F000FE010E948A0BC93DD107C9F70E9409047C
:100200000C94820D0C940000AF92BF92CF92DF92BB
:10021000EF92FF920F931F93CF93DF936C017B01BB
:100220008B01040F151FEB015E01AE18BF08C0174C
:10023000D10759F06991D601ED91FC910190F081BF
:10024000E02DC6010995892B79F7C501DF91CF9182
:100250001F910F91FF90EF90DF90CF90BF90AF90E4
:100260000895FC01538D448D252F30E0842F90E0BC
:10027000821B930B541710F0CF96089501970895A1
:10028000FC01918D828D981761F0A28DAE0FBF2F6A
:10029000B11D5D968C91928D9F5F9F73928F90E0C0
:1002A00008958FEF9FEF0895FC01918D828D98172F
:1002B00031F0828DE80FF11D858D90E008958FEF6C
:1002C0009FEF0895FC01918D228D892F90E0805C35
:1002D0009F4F821B91098F739927089584E391E0C2
:1002E0000E94620121E0892B09F420E0822F089509
:1002F00080E090E0892B29F00E946E0181110C941E
:1003000000000895FC01A48DA80FB92FB11DA35AB8
:10031000BF4F2C91848D90E001968F739927848F25
:10032000A689B7892C93A089B1898C918370806448
:100330008C93938D848D981306C00288F389E02DE9
:1003400080818F7D80830895EF92FF920F931F939A
:10035000CF93DF93EC0181E0888F9B8D8C8D981378
:100360001AC0E889F989808185FF15C09FB7F89484
:10037000EE89FF896083E889F989808183708064D0
:1003800080839FBF81E090E0DF91CF911F910F911B
:10039000FF90EF900895F62E0B8D10E00F5F1F4F2A
:1003A0000F731127E02E8C8D8E110CC00FB607FC39
:1003B000FACFE889F989808185FFF5CFCE010E94C7
:1003C0008201F1CFEB8DEC0FFD2FF11DE35AFF4FB2
:1003D000F0829FB7F8940B8FEA89FB898081806255
:1003E000CFCFCF93DF93EC01888D8823B9F0AA8912
:1003F000BB89E889F9898C9185FD03C0808186FDE0
:100400000DC00FB607FCF7CF8C9185FFF2CF80812E
:1004100085FFEDCFCE010E948201E9CFDF91CF9120
:10042000089590E0FC01E256FE4F2491FC01E6574E
:10043000FE4F3491FC01EA58FE4FE491EE23C9F0DF
:10044000222339F0233001F1A8F4213019F12230B0
:1004500029F1F0E0EE0FFF1FE459FE4FA591B49192
:100460008FB7F894EC91611126C030953E233C93F0
:100470008FBF08952730A9F02830C9F0243049F7FC
:10048000809180008F7D03C0809180008F77809362
:100490008000DFCF84B58F7784BDDBCF84B58F7DBF
:1004A000FBCF8091B0008F778093B000D2CF809146
:1004B000B0008F7DF9CF3E2BDACFCF93DF9390E062
:1004C000FC01E657FE4F24918A589E4FFC0184910F
:1004D0008823D1F090E0880F991FFC01EE59FE4F60
:1004E000A591B491FC01E459FE4FC591D4916111DD
:1004F0000EC09FB7F8948C91E22FE0958E238C93D9
:100500002881E223E8839FBFDF91CF9108958FB7C1
:10051000F894EC91E22BEC938FBFF6CF8E50806471
:1005200080937C0080917A00806480937A0080912F
:100530007A0086FDFCCF8091780090917900089533
:10054000CF93DF93EB01988161E0911160E00E940D
:1005500011028881882321F01882DF91CF910895BC
:1005600081E08883FACFFC0101900020E9F7319700
:10057000AF01481B590BBC0184E391E00C940401CA
:100580008F929F92AF92BF920F931F93CF93DF935F
:10059000CDB7DEB7A1970FB6F894DEBF0FBECDBFC3
:1005A00019A2423008F44AE08E010F5D1F4F842EDD
:1005B000912CB12CA12CA50194010E94680BE62F6F
:1005C000B901CA01EA30F4F4E05DD801EE938D017F
:1005D000232B242B252B79F790E080E0109719F03E
:1005E000CD010E94B302A1960FB6F894DEBF0FBEF4
:1005F000CDBFDF91CF911F910F91BF90AF909F9092
:100600008F900895E95CE1CFCF93DF93EC0188816F
:100610009981009711F00E942C0C198218821D827A
:100620001C821B821A82DF91CF910895FC01808188
:100630009181009711F00C942C0C08950F931F9347
:10064000CF93DF93EC0188819981009759F02A813B
:100650003B812617370730F081E0DF91CF911F9162
:100660000F9108958B016F5F7F4F0E94B50C00972B
:1006700059F0998388831B830A832C813D81232B26
:1006800059F7FC011082E8CF80E0E7CFEF92FF92AC
:100690000F931F93CF93DF93EC017B018A01BA0183
:1006A0000E941E0381110BC0CE010E940403CE01E3
:1006B000DF91CF911F910F91FF90EF9008951D83CF
:1006C0000C83B701888199810E947B0DF0CF1F9226
:1006D0000F920FB60F9211242F933F938F939F93F6
:1006E000AF93BF938091300190913101A09132017D
:1006F000B091330130912F0123E0230F2D3758F5AE
:100700000196A11DB11D20932F018093300190937C
:100710003101A0933201B093330180912B0190916C
:100720002C01A0912D01B0912E010196A11DB11DAA
:1007300080932B0190932C01A0932D01B0932E0157
:10074000BF91AF919F918F913F912F910F900FBECD
:100750000F901F90189526E8230F0296A11DB11D3A
:10076000D2CF1F920F920FB60F9211242F933F9367
:100770004F935F936F937F938F939F93AF93BF93A9
:10078000EF93FF9384E391E00E948201FF91EF9148
:10079000BF91AF919F918F917F916F915F914F9199
:1007A0003F912F910F900FBE0F901F9018951F92A1
:1007B0000F920FB60F9211242F938F939F93EF9365
:1007C000FF93E0914401F09145018081E0914A015D
:1007D000F0914B0182FD1BC0908180914D018F5F94
:1007E0008F7320914E01821741F0E0914D01F0E0AE
:1007F000EC5CFE4F958F80934D01FF91EF919F919F
:100800008F912F910F900FBE0F901F9018958081A0
:10081000F4CFCF93DF93CDB7DEB7E7970FB6F89459
:10082000DEBF0FBECDBF789484B5826084BD84B531
:10083000816084BD85B5826085BD85B5816085BDDB
:1008400080916E00816080936E0010928100809193
:10085000810082608093810080918100816080931B
:100860008100809180008160809380008091B10040
:1008700084608093B1008091B00081608093B0006B
:1008800080917A00846080937A0080917A008260FF
:1008900080937A0080917A00816080937A008091C1
:1008A0007A00806880937A001092C10061E088E04D
:1008B0000E945D0261E089E00E945D0261E08AE0E1
:1008C0000E945D0261E08BE00E945D0261E08CE0CD
:1008D0000E945D0261E08DE00E945D0260E08EE0BA
:1008E0000E945D0260E08FE00E945D0260E088E0AF
:1008F0000E94110260E089E00E94110260E08AE03B
:100900000E941102E0914401F091450182E0808350
:10091000E0914001F09141011082E0914201F0919B
:1009200043018FEC808310924C01E0914801F091DB
:10093000490186E08083E0914601F0914701808182
:1009400080618083E0914601F09147018081886059
:100950008083E0914601F091470180818068808327
:10096000E0914601F091470180818F7D8083CE0127
:1009700001967C0180E0C82E80E0D82E84E391E0CF
:100980000E946201892B49F084E391E00E944001BA
:1009900090932A0180932901F1CFE0912901F091F0
:1009A0002A01F197E930F10598F4E752FB4F0C94D6
:1009B0008A0BE204F604FB0400050D0518051E056C
:1009C000D505EE0568E271E088E090E00E94A002A3
:1009D00010922A0110922901C114D10479F20E94C7
:1009E0006E01882359F20E940000C8CF67E271E0CF
:1009F00089E090E0EBCF66E271E08AE090E0E6CF3C
:100A000061E08BE00E94110261E08CE00E94110223
:100A100060E08DE00E941102DBCF61E08BE00E947C
:100A2000110261E08DE00E94110260E08CE0F2CFE3
:100A300060E08BE00E94110260E0F4CF8EE00E9443
:100A40008E02BC01990F880B990B0E946E0923E25C
:100A50003BED49EF5EE30E94CD094B015C012B01A8
:100A60003C01AC019B010E94630B882329F088E1C3
:100A700091E00E94B302ACCFD501C401BF778CAB2B
:100A80009DABAEABBFAB2FEF3FEF4FE75FE7BC01D6
:100A9000CD010E94630B81110FC02FEF3FEF4FE795
:100AA0005FE76CA97DA98EA99FA90E946709181606
:100AB0001CF48CE191E0DDCF2FEF3FEF4FE75FE4D7
:100AC000C501B4010E945E0B18161CF480E291E08F
:100AD000D0CF2FEF3FEF4FE75FECC501B4010E948D
:100AE000670987FDF3CF20E030E0A901C501B4011B
:100AF0000E94670987FF0BC06DE284E391E00E94CA
:100B0000A4012401350177FA709477F870942AE0F3
:100B100037ED43EA5BE3C301B2010E94C30A2B0134
:100B20003C010E942F0B4B015C010E946C099B0150
:100B3000AC01C301B2010E94C20A2B013C014AE090
:100B4000C501B4010E94C0026EE284E391E00E94FC
:100B5000A40120E030E040E251E4C301B2010E9470
:100B6000CD092B013C010E942F0B4B01B12CA12C74
:100B70004AE0C501B4010E94C002C501B4010E944F
:100B80006C099B01AC01C301B2010E94C20A20E0C2
:100B900030E040E251E40E94CD090E942F0B90E02A
:100BA00080E04AE00E94C00213CF8FE00E948E02D4
:100BB0004C01990FAA08BB084AE0C501B401B7FE71
:100BC000F1CF6DE284E391E00E94A40166277727CC
:100BD000CB01681979098A099B09E3CF8EE00E944D
:100BE0008E021BA21AA21DA21CA21FA21EA2BC0141
:100BF000990F880B990B0E946E0923E23BED49EF98
:100C00005EE30E94CD09870122E044E00E94DD06F8
:100C1000009709F498C0FC0101900020E9F7319792
:100C2000AF01481B590BBC01CE0182960E944603BE
:100C30008FE00E948E0219A618A61BA61AA61DA652
:100C40001CA64AE0B7010E94FB06F70101900020B4
:100C5000E9F73197AF014E195F09B701CE018896C8
:100C60000E9446031A8219821C821B821E821D82E8
:100C700068A579A56115710529F04CA55DA5C70189
:100C80000E944603AD80BE809FEFA91AB90AB50144
:100C9000C7010E941E03882309F45AC029813A81A2
:100CA0008D819E8164E271E0820F931F0E947B0D13
:100CB000BE82AD828AA09BA08114910409F44CC02D
:100CC000AEA0BFA0A114B104A9F08D819E81A80E91
:100CD000B91EB501C7010E941E038823E9F12981CD
:100CE0003A818D819E81B401820F931F0E947B0DFA
:100CF000BE82AD821FA61EA619AA18AA1BAA1AAAEE
:100D000069817A816115710531F04D815E81CE0175
:100D10008E960E944603C7010E941603CE01889654
:100D20000E941603CE0182960E9416034AA95BA96F
:100D30006EA57FA584E391E00E940401CE018E960A
:100D40000E94160345CECE0182960E94040370CF06
:100D5000C7010E940403AECFC7010E940403CACF9B
:100D6000E4E3F1E01382128288EE93E0A0E0B0E0C9
:100D700084839583A683B7838AE091E091838083FF
:100D800085EC90E09587848784EC90E09787868750
:100D900080EC90E0918B808B81EC90E0938B828B48
:100DA00082EC90E0958B848B86EC90E0978B868B21
:100DB000118E128E138E148E0895EF920F931F933F
:100DC000CF93DF93E80134E047FD34E1042E000CBB
:100DD000550B57FF03C0519541955109E32E022F42
:100DE000242FAE010E942007CE01DF91CF911F91E9
:100DF0000F91EF900895BB274A3031F4992322F4E4
:100E0000BDE2909581959F4F0C940707BB27FB018E
:100E10005527AA27880F991FAA1FA41710F0A41BF3
:100E200083955051B9F7A05DAA3308F0A95DA1934D
:100E3000009779F7B111B1931192CB010C94570936
:100E4000A9E0B0E0E6E2F7E00C94910A6A01F22E24
:100E5000B02E102FFBE3AF2EA01608F41BE31F5F8C
:100E6000012F27E0AE014F5F5F4F0E947F08BC015A
:100E70008981982F9970913009F43FC09BE2E1FC81
:100E800004C09E2D9170E0FC3AC05E2D5071E82F99
:100E9000E87083FF46C084E0911101C083E0EF2D2C
:100EA000E81B8F1508F0E0E0D6018E2F20E25523D5
:100EB00051F1992329F0D6019C93C60101966C014A
:100EC00096012D5F3F4FE2FE24C08EE4D6018C9345
:100ED00091E411969C93119712968C93D9018E2FC1
:100EE00090E281111BC0E20FF32FF11D10828EEFF3
:100EF0009FEF2996ECE00C94AD0A9DE2C6CF90E2FC
:100F0000C4CF2D9381508111FCCFCE0ED11CE0E0D7
:100F1000D0CF8EE6D6018C9391E6DBCF9D938150A6
:100F2000E0CF482F447082FF3DC084E0911101C0A2
:100F300083E08F1510F4EF2DE81BD6018E2F20E2F1
:100F4000552309F1992329F0D6019C93C6010196F6
:100F50006C0196012D5F3F4FE2FE1BC089E4D60174
:100F60008C938EE411968C93119786E412968C9351
:100F7000D9018E2F90E2882309F4B5CF9D9381503B
:100F8000FACF2D9381508111FCCFCE0ED11CE0E021
:100F9000D9CF89E6D6018C938EE611968C93119762
:100FA00086E6E4CF9B0177FF02C030E020E0A1E0BD
:100FB000B0E0911102C0B0E0A0E0F9013196AE0FAF
:100FC000BF1F8B2C912CBB2009F461C05401EFEFA3
:100FD000AE1ABE0AAA0DBB1DFA161B0619F014F0B4
:100FE0004F2D4A1B511188C0E3FC59C07601A42F34
:100FF000B0E2A1114FC0C40ED11C992309F45BC00B
:1010000040E0D6011196F60190836D01552309F455
:1010100048C0012F060F9A81582F507184FF03C0DA
:10102000913309F4015010160CF047C0093008F054
:1010300008E0EEE2FE2E5B01A01AB1088501919452
:10104000819491082F3F320729F4D601FC92F601D2
:1010500031966F016217730794F1021713077CF53D
:10106000DB01A21BB30BAA24A394B12CAC0EBD1EB2
:10107000AA0DBB1D11968C9121503109D6011196F4
:1010800028153905F4F0F60180836D01DBCFB12C12
:10109000A12CA0CFF701B1937F01A150AACF91114C
:1010A000B0CFD601942F50E302C05D9391509111BF
:1010B000FCCFC40ED11C40E0ACCF01E0BACF80E33E
:1010C000DBCF6217730731F4963388F4953311F44C
:1010D000552369F0F6018083FD01842F90E2811190
:1010E00008C0A40FB11D1C9290E080E002CF81E304
:1010F000F1CF91938150F3CF911183CF8ACF2830D4
:1011000008F027E03327DA01990F311D87FD916040
:1011100000966105710539F432602E5F3D9330E32E
:101120002A95E1F708959F3F30F0803871056105F9
:1011300009F03C5F3C5F3D93913008F08068911D61
:10114000DF93CF931F930F93FF92EF92192F987F06
:101150009695E92F96959695E90FFF27EE53FF4F49
:1011600099273327EE24FF24A701E701059008946F
:10117000079428F4360FE71EF81E491F511D660F0D
:10118000771F881F991F0694A1F70590079428F4EC
:10119000E70EF81E491F561FC11D770F881F991FA4
:1011A000661F0694A1F70590079428F4F80E491FCE
:1011B000561FC71FD11D880F991F661F771F0694E2
:1011C000A1F70590079420F4490F561FC71FD81F99
:1011D000990F661F771F881F0694A9F784911095B1
:1011E000177041F0D695C79557954795F794E794B2
:1011F0001A95C1F7E8E6F0E06894159015913591DD
:101200006591959105907FE27395E118F10A430B82
:10121000560BC90BD009C0F7E10CF11E431F561F36
:10122000C91FD01D7EF4703311F48A95E6CFE8947F
:10123000015030F0080F0AF40027021708F4202F9D
:101240002395022F7A3328F079E37D932A95E9F7E5
:1012500010C07D932A9589F60694979567953795E2
:1012600017951794E118F10A430B560BC90BD009D7
:1012700098F023957E9173957A3308F070E37C9310
:101280002013B8F77E9170617D9330F0839571E300
:101290007D9370E32A95E1F71124EF90FF900F9171
:1012A0001F91CF91DF91992787FD90950895DC01DB
:1012B000FC01672F71917723E1F7329704C07C918D
:1012C0006D9370836291AE17BF07C8F308950E94B3
:1012D000A90908F481E00895E89409C097FB3EF459
:1012E00090958095709561957F4F8F4F9F4F992373
:1012F000A9F0F92F96E9BB279395F69587957795F1
:101300006795B795F111F8CFFAF4BB0F11F460FFB0
:101310001BC06F5F7F4F8F4F9F4F16C0882311F008
:1013200096E911C0772321F09EE8872F762F05C01C
:10133000662371F096E8862F70E060E02AF09A95B7
:10134000660F771F881FDAF7880F9695879597F9AC
:101350000895990F0008550FAA0BE0E8FEEF161646
:101360001706E807F907C0F012161306E407F50799
:1013700098F0621B730B840B950B39F40A2661F00D
:10138000232B242B252B21F408950A2609F4A140B0
:10139000A6958FEF811D811D08950E94E0090C9490
:1013A000510A0E94430A38F00E944A0A20F095230D
:1013B00011F00C943A0A0C94400A11240C94850AFA
:1013C0000E94620A70F3959FC1F3950F50E0551F7C
:1013D000629FF001729FBB27F00DB11D639FAA278A
:1013E000F00DB11DAA1F649F6627B00DA11D661FD9
:1013F000829F2227B00DA11D621F739FB00DA11DFA
:10140000621F839FA00D611D221F749F3327A00DB3
:10141000611D231F849F600D211D822F762F6A2F4F
:1014200011249F5750409AF0F1F088234AF0EE0FB4
:10143000FF1FBB1F661F771F881F91505040A9F7E1
:101440009E3F510580F00C943A0A0C94850A5F3F48
:10145000E4F3983ED4F3869577956795B795F7951D
:10146000E7959F5FC1F7FE2B880F911D9695879595
:1014700097F9089597F99F6780E870E060E0089514
:101480009FEF80EC089500240A941616170618069C
:101490000906089500240A94121613061406050678
:1014A0000895092E0394000C11F4882352F0BB0F09
:1014B00040F4BF2B11F460FF04C06F5F7F4F8F4F6C
:1014C0009F4F089557FD9058440F551F59F05F3FA7
:1014D00071F04795880F97FB991F61F09F3F79F056
:1014E00087950895121613061406551FF2CF4695D8
:1014F000F1DF08C0161617061806991FF1CF86955A
:101500007105610508940895E894BB27662777273D
:10151000CB0197F908952F923F924F925F926F926D
:101520007F928F929F92AF92BF92CF92DF92EF9273
:10153000FF920F931F93CF93DF93CDB7DEB7CA1BF4
:10154000DB0B0FB6F894DEBF0FBECDBF09942A881F
:10155000398848885F846E847D848C849B84AA84C7
:10156000B984C884DF80EE80FD800C811B81AA8154
:10157000B981CE0FD11D0FB6F894DEBF0FBECDBF1F
:10158000ED0108955058BB27AA270E94DA0A0C944F
:10159000510A0E94430A38F00E944A0A20F039F4A6
:1015A0009F3F19F426F40C94400A0EF4E095E7FBF3
:1015B0000C943A0AE92F0E94620A58F3BA1762079C
:1015C00073078407950720F079F4A6F50C94840A34
:1015D0000EF4E0950B2EBA2FA02D0B01B90190014E
:1015E0000C01CA01A0011124FF27591B99F0593F92
:1015F00050F4503E68F11A16F040A22F232F342FDA
:101600004427585FF3CF469537952795A795F04027
:101610005395C9F77EF41F16BA0B620B730B840B3C
:10162000BAF09150A1F0FF0FBB1F661F771F881FF4
:10163000C2F70EC0BA0F621F731F841F48F487954C
:1016400077956795B795F7959E3F08F0B0CF93953E
:10165000880F08F09927EE0F9795879508950E94B7
:101660006A0A88F09F5798F0B92F9927B751B0F0C0
:10167000E1F0660F771F881F991F1AF0BA95C9F716
:1016800014C0B13091F00E94840AB1E008950C9426
:10169000840A672F782F8827B85F39F0B93FCCF3D9
:1016A000869577956795B395D9F73EF49095809593
:1016B000709561957F4F8F4F9F4F08950E94A909A4
:1016C00008F48FEF08950E94A909880B990B0895DB
:1016D000A1E21A2EAA1BBB1BFD010DC0AA1FBB1F36
:1016E000EE1FFF1FA217B307E407F50720F0A21BA8
:1016F000B30BE40BF50B661F771F881F991F1A9415
:1017000069F760957095809590959B01AC01BD013E
:10171000CF010895EE0FFF1F0590F491E02D09947D
:101720000F931F93CF93DF938230910510F482E0E3
:1017300090E0E091D301F091D40130E020E0B0E0FE
:10174000A0E0309799F42115310509F44AC0281B0F
:10175000390B24303105D8F58A819B8161157105DB
:1017600089F1FB0193838283FE0111C04081518185
:101770000281138148175907E0F04817590799F477
:10178000109761F012960C93129713961C93329651
:10179000CF01DF91CF911F910F9108950093D30155
:1017A0001093D401F4CF2115310551F0421753079E
:1017B00038F0A901DB019A01BD01DF01F801C1CFB9
:1017C000EF01F9CF9093D4018093D301CDCFFE01E7
:1017D000E20FF31F819391932250310939832883BB
:1017E000D7CF2091D1013091D201232B41F4209108
:1017F0000201309103013093D2012093D101209155
:101800000001309101012115310541F42DB73EB79A
:101810004091040150910501241B350BE091D10149
:10182000F091D201E217F307A0F42E1B3F0B28170B
:10183000390778F0AC014E5F5F4F2417350748F049
:101840004E0F5F1F5093D2014093D101819391932A
:101850009FCFF0E0E0E09CCFCF93DF930097E9F0DB
:10186000FC01329713821282A091D301B091D4016E
:10187000ED0130E020E01097A1F420813181820F4A
:10188000931F2091D1013091D2012817390709F017
:1018900061C0F093D201E093D101DF91CF9108951F
:1018A000EA01CE17DF07E8F54A815B819E01411509
:1018B0005105B1F7E901FB83EA8349915991C40FBE
:1018C000D51FEC17FD0761F4808191810296840F8A
:1018D000951FE90199838883828193819B838A8301
:1018E000F0E0E0E012968D919C9113970097B9F586
:1018F0002D913C911197CD010296820F931F20915B
:10190000D1013091D2012817390739F6309751F5B6
:101910001092D4011092D301B093D201A093D101BF
:10192000BCCFD383C28340815181840F951FC817D8
:10193000D90761F44E5F5F4F88819981480F591F25
:10194000518340838A819B81938382832115310552
:1019500009F0B0CFF093D401E093D3019ECFFD0105
:10196000DC01C0CF13821282D7CFB0E0A0E0EBEB56
:10197000FCE00C948D0A8C01009751F4CB010E947D
:10198000900B8C01C801CDB7DEB7E0E10C94A90A39
:10199000FC01E60FF71F9C0122503109E217F30703
:1019A00008F49DC0D901CD91DC911197C617D707D6
:1019B00098F0C530D10530F3CE010497861797070C
:1019C00008F3C61BD70B2297C193D1936D937C93D9
:1019D000CF010E942C0CD6CF5B01AC1ABD0A4C0182
:1019E0008C0E9D1EA091D301B091D401512C412C9D
:1019F000F12CE12C109731F58091D1019091D20119
:101A00008815990509F05CC04616570608F058C0BD
:101A10008091000190910101009741F48DB79EB72C
:101A20004091040150910501841B950BE817F907BB
:101A300008F055C0F093D201E093D101F901718310
:101A40006083A0CF8D919C91119712966C90129704
:101A500013967C901397A815B90559F56C0142E0CF
:101A6000C40ED11CCA14DB0420F1AC014A195B0975
:101A7000DA011296159780F0628273825183408357
:101A8000D9016D937C93E114F10471F0D7011396A1
:101A9000FC93EE93129776CF22968C0F9D1FF9013F
:101AA00091838083F301EFCFF093D401E093D301CE
:101AB00069CF4816590608F42C017D01D3019ACF4D
:101AC000CB010E94900B7C01009749F0AE01B80158
:101AD0000E94720DC8010E942C0C870153CF10E0A8
:101AE00000E050CFFB01DC0102C001900D9241509B
:101AF0005040D8F70895FB01DC0101900D920020C1
:081B0000E1F70895F894FFCF0E
:101B08000000D501800000000000A401040131019B
:101B1800F1016201400154016E616E00696E660058
:061B28006F76660020004C
:00000001FF
